:10000300E4F50B1202031201E4D2ACD2AF1200F1F9
:100013008F08E508F460F6E50B700F120175AD0764
:100023007F021201C0750B0180E3E50BB40113E5F8
:1000330008640A60D8E508640B60D2750B02AF0848
:100043008015E50B64027018E5086006750B03FF65
:100053008005750B04AF08120175AD077F0280663A
:10006300E50B64036006E50B64057060E508640A4C
:10007300609BE508640B70297DFF7F011201C07D41
:10008300FF7F031201C07DFF7F021201C07DFF7F4E
:10009300011201C07DFF7F031201C0E4F50B0200D2
:1000A30010AF08120175EF24D0FD7F031201C0AF1A
:1000B30008120175AD077F021201C0AF0812017566
:1000C300EF24D0FD7F031201C0020010E50B64048E
:1000D3006003020010AF081201758F08E508B4230E
:0E00E30003750B05AD087F021201C00200106C
:04020300750CFF2255
:1000F1007FFFC2A3D2A2D2A1E5A0B4E7047F018011
:1001010019E5A0B4D7047F048010E5A0B4B7047F3B
:10011100078007E5A0B477027F0AD2A3C2A2D2A1C9
:10012100E5A0B4EB047F028019E5A0B4DB047F05F0
:100131008010E5A0B4BB047F088007E5A0B47B0272
:10014100E4FFD2A3D2A2C2A1E5A0B4ED047F038053
:1001510019E5A0B4DD047F068010E5A0B4BD047FDD
:10016100098007E5A0B47D027F0BEFB50C037FFF8B
:03017100228F0CCE
:010174002268
:10017500EF70037F3022BF01037F3122BF02037F6F
:100185003222BF03037F3322BF04037F3422BF051E
:10019500037F3522BF06037F3622BF07037F372241
:1001A500BF08037F3822BF09037F3922BF0A037FB7
:0B01B5002A22BF0B037F23227F0022C1
:03020700D2B4224C
:03020A00C2B42259
:1001E400D29FC29ED29DD29CC29BC29AC299C298EF
:0301F40002020AFA
:1001C0008F098D0A120207D29B8509993099FDC2C9
:1001D0009912020A120207C29B850A993099FDC240
:0401E0009902020A74
:030000000201F703
:0C01F700787FE4F6D8FD75810C0200034F
:00000001FF
