:0300230002002EAA
:10002E00C0E0C0F0C083C082C0D075D000C000C098
:10003E0001C002C003C004C005C006C007C2AF3075
:10004E0098FDC298309D0BE599B40302C29DD2AFC4
:10005E008034D29DE599B4FF0F12001CC2CAC2A40F
:10006E00C2A3C2A2C2A1801CE599B40A0F12001C41
:10007E00C2CAC2A4D2A3D2A2D2A1800812001FD299
:10008E00CA859908D2AFD007D006D005D004D003C8
:10009E00D002D001D000D0D0D082D083D0F0D0E02A
:0100AE00321F
:03002B000200AF21
:1000AF00C0E0C0F0C0D075D000C000C006C007AF20
:1000BF0008EF75F00AA4240AFFE435F0FEC3E50942
:1000CF009FEE6480F87480985004D2A48002C2A47A
:0F00DF000509D007D006D000D0D0D0F0D0E03245
:10011200120127C2A3C2A2C2A1D2ACD2AFE4F50897
:0501220012000380FE45
:10000300C2A4C2CAC2CB75CAFF75CBFFD2AD75CD30
:09001300FF75CCFFD2A5C2A622A4
:03001C00D2A62247
:03001F00C2A62254
:10012700D29FC29ED29DD29CC29BC29AC299C298AC
:030137000201467C
:1000EE008F0A8D0B120026D29B850A993099FDC27C
:1000FE0099120146120026C29B850B993099FDC2BA
:04010E00990201460B
:03002600D2B4222F
:03014600C2B4221E
:0300000002013AC0
:0C013A00787FE4F6D8FD75810B020112FD
:00000001FF
