:03000B0002012BC4
:10012B00C0E0C0F0C083C082C0D075D000C000C09A
:10013B0001C002C003C004C005C006C007C28CC208
:10014B008D758C00758A00120240D28CD007D006B8
:10015B00D005D004D003D002D001D000D0D0D082B3
:07016B00D083D0F0D0E03298
:03001B000201726D
:10017200C0E0C0F0C083C082C0D075D000C000C053
:1001820001C002C003C004C005C006C007C28E2061
:10019200000512020080031200B5D28ED007D006ED
:1001A200D005D004D003D002D001D000D0D0D0826C
:0701B200D083D0F0D0E03251
:03002300020026B2
:10002600C0E0C0F0C083C082C0D075D000C000C0A0
:1000360001C002C003C004C005C006C007C2AF307D
:1000460098FDC298309D0BE599B40102C29DD2AFCE
:100056008042D29DE599B4FF0BC200C28CC28E12BB
:100066000003802E12001EEF600812001EEF6002D1
:10007600801BE599B40104C2008007E599B4020823
:10008600D200D28CD28E800AE599B40305D2001232
:10009600022FD2AFD007D006D005D004D003D002AD
:0F00A600D001D000D0D0D082D083D0F0D0E032C3
:1001DD0012021CD2AC438901D2A9E4F58CF58BC275
:1001ED008C438920D2ABF58DF58BC28ED2AF120028
:0301FD000380FE7E
:06023A0008144022017FC0
:03001E00AF0A2204
:06000300E4F50AC201222F
:1002000090FD0020010B7406F090FE007430F08029
:0C021000077409F090FE00F0E4F5802275
:1000B500E4FFE50AB4010890023AE493FF804EE5B7
:1000C5000AB4020B90023BE493FF90023A8031E5BB
:1000D5000AB4031290023BE493FF90023AE4934F73
:1000E500FF90023C801AE50AB4041B90023BE4939E
:1000F500FF90023AE4934FFF90023CE4934FFFA335
:10010500E4934FFF8007E50AB40502E4FF300109D7
:10011500AE0AEE90023A93420790FD00EFF090FE92
:0501250000F0E4F5808C
:01012A0022B2
:03024000B20122E6
:0B022F00050AE50AB40603750A052263
:10021C00D29FC29ED29DD29CC29BC29AC299C298B6
:03022C0002024685
:1001B9008F088D09120243D29B8508993099FDC297
:1001C90099120246120243C29B8509993099FDC2D0
:0401D900990202463F
:03024300D2B42210
:03024600C2B4221D
:0300000002000EED
:0C000E00787FE4F6D8FD7581200201DD4A
:00000001FF
