:10128300C2A4C2A553A0F0EFC4540F42A0D2A6C279
:0E129300A653A0F0EF540F42A0D2A6C2A6228E
:1012A100D2A4C2A553A0F0EFC4540F42A0D2A6C24B
:0E12B100A653A0F0EF540F42A0D2A6C2A62270
:1012DD00E4F5A0C2A4C2A5D2A1D2A6C2A67F2812AF
:0C12ED0012837F0C1212837F0602128312
:050003007F0C021283D6
:05000E007F08021283CF
:0B001600E4FF0F1212831F0FBF64FCF9
:0100210022BC
:10124300AE07EE7005ED24808012BE0105ED24C0CB
:10125300800AEDBE02042490800224D0FF12128380
:011263002268
:10133E00AC07AE03AF05AD06121243AF040212A105
:1012F900AF05AD7512124312065DFF600C1212A103
:0A130900740129F9E43AFA80EE229B
:100EAD00505245535320414E59204B455900544FF4
:100EBD0020535441525400454E54455220524F54E4
:100ECD004154494F4E004D4F4445002846524F4D19
:100EDD00203020544F20392900444F20594F5520A0
:100EED0057414E5420544F005345542041204D49F5
:100EFD00582054494D45520030202D20594553005E
:100F0D0044454641554C54202D204E4F00535045DD
:100F1D004544204D4F44453A200054494D45523AE1
:100F2D00204F4646005052455353202320544F2006
:100F3D00454E44002575005345542054494D4552A6
:100F4D0020284D494E29002A20544F2044454C4518
:100F5D005445002320544F20434F4E4649524D00D7
:100F6D00253032753A253032753A253032750054B8
:100F7D00494D45523A20005B2E2E2E2E2E2E2E2E12
:100F8D002E2E2E2E2E2E5D0054494D455220454EAF
:100F9D004445440050524553532023002020202027
:020FAD00200022
:101264001200167BFF7A0E79AD7575017D0112129D
:0F127400F97BFF7A0E79BB7575047D020212F9C2
:1011CB001200167BFF7A0E79C4757501E4FD1212BD
:1011DB00F97BFF7A0E79D37575067D011212F97BB7
:0D11EB00FF7A0E79D87575027D020212F9A7
:10115C001200167BFF7A0E79E6E4F575FD1212F992
:10116C007BFF7A0E79F5E4F5757D011212F97BFFA0
:10117C007A0F7905E4F5757D021212F97BFF7A0F6F
:0A118C00790DE4F5757D030212F9F8
:101196001200167BFF7A0F791AE4F575FD1212F923
:1011A6007B0CE4FDAF0812133E7BFF7A0F7927E430
:1011B600F5757D011212F97BFF7A0F7932E4F57528
:0511C6007D030212F997
:09135A007B0CE4FDAF0802133E18
:101032007558FF75590F755A41850C5B850D5C7BA0
:10104200007A00794C1207BC1200167BFF7A0F79E6
:1010520044E4F575FD1212F97B007A00794CE4F54F
:10106200757D011212F97BFF7A0F7954E4F5757DD3
:10107200021212F97BFF7A0F7960E4F5757D0302A3
:0210820012F961
:1010D000784C7C007D007BFF7A0F79A97E007F062B
:1010E0001206377B007A00794CE4F5757D01121207
:1010F000F97558FF75590F755A41850C5B850D5C64
:101100007B007A00794C1207BC7B007A00794CE4B2
:07111000F5757D010212F9E3
:100FAF007558FF75590F755A6DAE0CAF0D7C007DDE
:100FBF003C1206C78E5B8F5CAE0CAF0D7C007D3C88
:100FCF001206C78C5D8D5EE4F55FFB7A00794C12DB
:100FDF0007BC1200167BFF7A0F791AE4F575FD1224
:100FEF0012F97B0CE4FDAF0812133E7BFF7A0F79E9
:100FFF007CE4F5757D011212F97B007A00794C754E
:10100F0075077D011212F97BFF7A0F7984E4F5756C
:10101F007D021212F97BFF7A0F7932E4F5757D03A9
:03102F000212F9B1
:1012BF001200167BFF7A0F7995E4F575FD1212F97E
:0E12CF007BFF7A0F79A1E4F5757D010212F91B
:100D4B00E50B450A701CE51145107016C28C750E2B
:100D5B00061212BF7D0A7F0312121F7D0A7F030248
:100D6B000EA9E50B450A600AE50B150B7018150A61
:100D7B008014E5114510600EE51115117002151068
:100D8B00750A00750B3B7558FF75590F755A6DAE8B
:100D9B0010AF117C007D3C1206C78E5B8F5CAE10D2
:100DAB00AF117C007D3C1206C78C5D8D5E850A5FA2
:100DBB00850B607B007A0079231207BC7B007A00DD
:100DCB0079237575077D011212F9C3E50D9511FD98
:100DDB00E50C9510FCE41203428F2F8E2E8D2D8C7B
:100DEB002CC004C005C006C007AC0AAD0BE412034F
:100DFB0042E4FBFA79707842120227A804A905AAEB
:100E0B0006AB07D007D006D005D0041200298F2FD0
:100E1B008E2E8D2D8C2CC004C005C006C007AC0CCB
:100E2B00AD0DE4120342A804A905AA06AB07D0072F
:100E3B00D006D005D0041202278F2F8E2E8D2D8C2D
:100E4B002CE50F2401FDE433FCE41203427B2A7AE8
:100E5B003A7992783D12011EAB2FAA2EA92DA82C00
:100E6B001202C4600D400B050FAB0F7D027F3D12CC
:100E7B00133EE5092401FDE433FCE41203427B310C
:100E8B007A99792A783E12011EAB2FAA2EA92DA88A
:100E9B002C1202C4600B400905097D037F0112125D
:010EAB001F27
:010EAC002223
:03001300021117C0
:10111700C0E0C0F0C083C082C0D075D000C000C09E
:1011270001C002C003C004C005C006C007301205D5
:1011370012000E8003120003B212D007D006D005AA
:10114700D004D003D002D001D000D0D0D082D08339
:05115700D0F0D0E032F1
:03000B000210845C
:10108400C0E0C0F0C083C082C0D075D000C000C032
:1010940001C002C003C004C005C006C007C28CC2A0
:1010A4008D758C00758A00B213201303120D4BD278
:1010B4008CD007D006D005D004D003D002D001D004
:0C10C40000D0D0D082D083D0F0D0E03239
:03002300020BCFFE
:100BCF00C0E0C0F0C083C082C0D075D000C000C0EC
:100BDF0001C002C003C004C005C006C0073098FDA5
:100BEF00C298309D0EE59964026003020D30C29DDC
:100BFF00020D30D29DE50E7009750E011211CB0258
:100C0F000D30E50EB4010C750E0212115C859908BA
:100C1F00020D30E50E64027025E5996430600A75A7
:100C2F000E031211967D01807C750E04750C0075F4
:100C3F000D00750A00750B00121032020D30E50E13
:100C4F0064036005E50EB40511E599B4FF03020DC9
:100C5F002885990812135A020D30E50E64046003BB
:100C6F00020D1EE599B42A12AE0CAF0D7C007D0A61
:100C7F001206C78E0C8F0D020D19E599642370367D
:100C8F00750E05850C10850D11C213F50FF509F5BD
:100C9F000AF50B438901758CFF758AF0D2A9D28CA6
:100CAF00120FAF7D027F0112121FE50824D0FD7FC6
:100CBF000312121F806BE50D24D0FFE50C34FFFEED
:100CCF00AD997C00EF2DFFEC3EFE7D0A1206B512AA
:100CDF0006C7E50D24D0FDE50C34FFFCAB997A0077
:100CEF00ED2BFDEA3CFCEF6D7002EE6C7033AE0C39
:100CFF00AF0D7C007D0A1206B5AD99EF2DFFEC3ECE
:100D0F00CF24D0F50DEF34FFF50C1210D08012E583
:100D1F000EB4060DE599B4FF08C28C750E001212C1
:100D2F0064D007D006D005D004D003D002D001D0B4
:0C0D3F0000D0D0D082D083D0F0D0E032C1
:10131300E4F50ED2121212DD12132BD2ACD28AD202
:08132300AAD2AF12126480FE91
:03000800D2B4224D
:03136300C2B422EF
:10132B00D29FC29ED29DD29CC29BC29AC299C29896
:03133B0002136337
:10121F008F4C8D4D120008D29B854C993099FDC291
:10122F0099121363120008C29B854D993099FDC224
:04123F00990213639A
:100026000203B0E86480F8E933E83360110460F055
:10003600ED33EC337009E8FCE9FDEAFEEBFF220440
:1000460060DED3EB9FEA9EE99DE8C2E78CF0C2F73B
:1000560095F0400CE8CCF8E9CDF9EACEFAEBCFFB07
:1000660012037B85D0F05804700320D5B3E80470E2
:10007600075002B2D50203BA92D5EC0460F7E4CC7D
:10008600C0E0C398F8603B94186008400DD0E0FBD0
:10009600020392E4FBFAC9FC8028E830E406E4C9CE
:1000A600FBE4CAFCE830E305E4C9CACBFCE8540724
:1000B6006010F8C3E913F9EA13FAEB13FBEC13FC2F
:1000C600D8F130F52FC3E49CFCEF9BFFEE9AFEEDD2
:1000D60099FDD0E0FBEF4E4D4C701222DB0302037C
:1000E600B7EC2CFCEF33FFEE33FEED33FDED30E7DE
:1000F600EB020392EF2BFFEE3AFEED39FDD0E0FB6B
:1001060050130BBB00030203BAED13FDEE13FEEF13
:0801160013FFEC13FC0203923D
:10011E00EC4D6011E8497017ED33EC3304600DE4DB
:10012E00FCFFFEFD22E933E8330470F80203B0123F
:10013E00037B58046009E4CC248150062850090240
:10014E0003BA2840030203B7C0E0EB4A7044B980FB
:10015E0006D0E0FB0203A6EF4E701CBD8008EBFF3D
:10016E00EAFEE9FD80EBE98DF0A4FEE5F002020760
:10017E00E9CDF9EAFEEBFFEF89F0A4FCE5F0CE89BC
:10018E00F0A42EFFE435F0CD89F0A42DFEE435F079
:10019E008067EF4E7005BD80D780C3EF8BF0A4ACA7
:1001AE00F0EE8BF0A42CFCE435F0F8EF8AF0A42CE2
:1001BE00E5F038FCE433CB8DF0A42CFCE5F03BF8F5
:1001CE00EE8AF0A42CFCE5F038F8E433CF89F0A4E5
:1001DE002CFCE5F038CF3400CE89F0A42FFFE5F0EB
:1001EE003EFEE433C98DF0A42EFEE5F039CD8AF043
:1001FE00A42FFFE5F03EFEE43DFD33D0E0FB5007BB
:10020E000BBB000F0203BAEC2CFCEF33FFEE33FEF8
:06021E00ED33FD02039226
:100224000203BAEC5D046005E8590470030203B0EC
:1002340012037B580460F6EC4860F2EC7004FDFE97
:10024400FF22C860DB2481C85009C39860025006AD
:100254000203B79850CAF582E9294B4A7005AB826C
:100264000203A675F0007C1A7880C3EF9BEE9AED2A
:1002740099400DC3EF9BFFEE9AFEED99FDE842F025
:10028400DC23ACF0D0E0FFD0E0FED0E0FDAB822078
:10029400E7101BEB60BAEC2CFCEF33FFEE33FEED02
:1002A40033FD020392E803F830E705C0F075F0006F
:1002B400EF2FFFEE33FEED33FD40B830E7C280AAE6
:1002C40074F8CC6480CCC86480C8F58204604FC3E1
:1002D400EB9FF5F0EA9E42F0E99D42F0E89C45F080
:1002E400603C501DE5825FFFE582D313CB5BCBF40A
:1002F4002B5582FB50280ABA002409B90020088033
:100304001DE5825BFBE582D313CF5FCFF4C3132FCC
:100314005582FF50090EBE00050DBD00010CC3EB54
:100324009FF5F0EA9E42F0E99D42F0E89C45F060BA
:0903340007CC4820E701B3EC22DC
:10033D0075F020800E75F010800575F0087D007E3B
:10034D00007F003392D530D50312071CEC334010DB
:10035D00EF33FFEE33FEED33FDEC33FCD5F0ED2244
:0E036D00E5F0247EA2D513CC92E7CDCEFF2280
:10076000E56C2458F8E6056C22785530100278586C
:10077000E475F00112072A02065D2009EB7F2ED2F4
:10078000098018EF540F2490D43440D4FF300D0B5F
:10079000EF24BFB41A0050032461FFE56D60021519
:1007A0006D0570E5707002056F30100D7855E475B9
:1007B000F00112072AEF0206A30211F87403D21007
:1007C0008003E4C210F56C8B558A568957E4F56DA9
:1007D000F56FF570E56D60077F2012079B80F5755A
:1007E0006EFFC20AC209C20BC20CC20EC20FC211F6
:1007F000120769FF700D3010057F001207ACAF7053
:10080000AE6F22B4255FC2D5C20D120769FF24D096
:10081000B40A00501A75F00A786D30D50508B6FF95
:100820000106C6A426F620D5047002D20C80D92475
:10083000CFB41A00EF5004C2E5D20D020A99D20AD1
:1008400080C6D20980C0D20B80BCD2D580BAD20E6D
:1008500080B47F2012079B200B077401B56D004008
:10086000F1120760FF12079B0207D4D211D20F804A
:1008700095120760FB120760FA120760F94A4B7085
:100880000679907A0B7BFF200B2EE56D602A7E00A7
:100890008E8275830012067660060EEE656E70F02D
:1008A000C2D5EBC0E0EAC0E0E9C0E0EE120AF9D040
:1008B000E0F9D0E0FAD0E0FB12065DFF60AAEBC0E1
:1008C000E0EAC0E0E9C0E012079BD0E02401F9D0E3
:1008D000E03400FAD0E0FBE56E0460DCD56ED98030
:1008E00087D20B80A2120ADC60F7E56E7001041259
:1008F00003C5A96E600DE56E600914F56E120B83D9
:10090000EF60F3EA30E702F404C3995077EAF42584
:100910006E0430E701E404F56E800D120ADC60C15C
:10092000EA056E256E1203C5EA786BF630E701E43E
:10093000256E04D56E04200E0114120AF9E4C0E0FD
:10094000120B83786BE6601320E70714F612078317
:10095000802204F6D0E014C0E07F00120783E56E29
:10096000600712077A156E800B300E0312077AD0DB
:10097000E00207D4D0E00480C5120ADC60A0E56E76
:10098000041203C5786BEAF6E56E200E02600104DE
:050990002404120AF925
:1009950074FF04C0E0120B83120783E56E200E027C
:1009A500600312077AD0E0B56EE87F4512078D78AF
:1009B5006BE67F2B30E7047F2DF404C0E012079B24
:1009C500D0E075F00A84C0F0120784D0E0120784E5
:1009D5000207D4791080027908C20FC2118008D2AB
:1009E500D5790A8004790AC2D5E56E047002F56EE0
:1009F500E4FAFDFEFF120760FC7B08200A131207CC
:100A050060FD7B1030090A120760FE120760FF7B4C
:100A150020EC3382D592D55013C3E43009069FFFED
:100A2500E49EFEE4200A039DFDE49CFCE4CBF8C2B1
:100A35000AEC700CCFCECDCCE824F8F870F3801713
:100A4500C3EF33FFEE33FEED33FDEC33FCEB33FB4D
:100A5500994002FB0FD8E9EB300A05F8D0E0C4480D
:100A6500B20AC0E00AEC4D4E4F78207B0070C2EA16
:100A7500B56E0040BCC0E0120AFBD0F0D0E0200A01
:100A850004C4C0E0C4B20AC0F0120784D0F0D5F0A7
:100A9500EB0207D412073A08715309D85808424C9B
:100AA500083E4209DC4F09E44409E4490857430973
:100AB500EA55091B4609794508E5470BB050084634
:100AC5002D084A2E086D2B084E23086B200B992AFA
:100AD50008064800000865E56EB4FF03756E06124A
:100AE5000760FC120760FD120760FE120760FF78C1
:100AF500640203F4790AA2D5200C14300E09B9104A
:100B0500020404B9080104A2D5200F0250010420F3
:100B15000B68920BB56D005034C0E07F20300C1986
:100B25007F30A20B720F720E500F120B52C20BC206
:100B35000FC20EC2117F30800F300E03E9C0E012E4
:100B4500079B300E03D0E0F9D0E0B56DCC300E1721
:100B55007F30B9100C12079B7F58300D077F7880C6
:100B650003B9080312079B300B057F2D02079B7FF6
:100B7500202011F87F2B200FF322920B80CF7F00CE
:100B8500B4070050052464F8E6FF22286E756C6CE6
:100B95002900D20A120760300AF8C20A786D30D5EA
:100BA5000108F60208062D50434958120760240330
:100BB500B405004001E4900BAB9312078C743A1214
:0A0BC500078CD20C756D040209D8EC
:10037B00E9D2E7C933E833F892D5EDD2E7CD33ECC8
:07038B0033FC5002B2D52241
:10039200EC30E7100FBF000C0EBE00080DBD0004CC
:1003A2000BEB6014A2D5EB13FCED92E7FD2274FF78
:1003B200FCFDFEFF22E480F8A2D574FF13FC7D80D1
:0303C200E480EFE5
:1003C500F920E72824F950037907E4F42402FB18FF
:1003D500DBFDE624FB5014E9600DE4F618E604F6AF
:0F03E500B40A08E4F6D9F57401F60A22C2D5224B
:1003F400ED33EC3392D5FA602AB4FF33EDC2E77BD8
:10040400FF60067A047919E4227A04792220D5045B
:100414007A04791D224E614E002B494E46002D4927
:100424004E4600E47A08F608DAFC7B00740722E8FA
:10043400C0E0ECC0E0EDC0E0EEC0E0EFC0E0EA7583
:10044400F010A4CAABF075F04DA42BFBE435F0FC1E
:10045400EA2410FAEB34C5FBEC34D9FCEDC2E7FF17
:1004640075F056A4F42411C5F0F434C58FF0A42A11
:10047400E5F03BE43CF620E714120527D0E0FFD07A
:10048400E0FED0E0FDD0E0FC1202278014F4041258
:100494000527D0E0FFD0E0FED0E0FDD0E0FC120163
:1004A4001ED0E0F8E6FAEDD2E7CD33EC332482FB3C
:1004B400E4C3CF33CFCE33CECD33CD33DBF37B07A1
:1004C40075F00A846004F6081B0AE5F0F6088FF05C
:1004D400740AA4FFACF08EF0740AA42CFEACF050A5
:1004E400010C8DF0740AA42CFDE435F0F608DBDE73
:0304F40074072268
:1004F7003F8000004120000042C80000447A00000D
:10050700461C400047C35000497424004B1896808E
:100517004CBEBC205A0E1BCA6753C21C749DC5AE85
:10052700FB60065407601C2323120555EB54386003
:100537000912054112055012011EECF8EDF9EEFA09
:10054700EFCB22EB12055080F1543803241C9004A2
:10055700F7FE93FC0EEE93FD0EEE930ECE93FF2265
:0300000002134E9A
:0C134E00787FE4F6D8FD7581750213135A
:10056700E709F608DFFA8046E709F208DFFA803E76
:1005770088828C83E709F0A3DFFA8032E309F60863
:10058700DFFA8078E309F208DFFA807088828C83CB
:10059700E309F0A3DFFA806489828A83E0A3F6087F
:1005A700DFFA805889828A83E0A3F208DFFA804C59
:1005B70080D280FA80C680D4806980F28033801030
:1005C70080A680EA809A80A880DA80E280CA803399
:1005D70089828A83ECFAE493A3C8C582C8CCC58311
:1005E700CCF0A3C8C582C8CCC583CCDFE9DEE780E1
:1005F7000D89828A83E493A3F608DFF9ECFAA9F060
:10060700EDFB2289828A83ECFAE0A3C8C582C8CCB5
:10061700C583CCF0A3C8C582C8CCC583CCDFEADECE
:10062700E880DB89828A83E493A3F208DFF980CC30
:1006370088F0EF60010E4E60C388F0ED2402B40429
:100647000050B9F582EB2402B4040050AF232345D0
:0606570082239005B77339
:10065D00BB010689828A83E0225002E722BBFE029B
:09066D00E32289828A83E49322CE
:10067600BB010CE58229F582E5833AF583E0225039
:1006860006E92582F8E622BBFE06E92582F8E22283
:0D069600E58229F582E5833AF583E493229D
:1006A300BB010689828A83F0225002F722BBFE0136
:0206B300F32230
:1006B500EF8DF0A4A8F0CF8CF0A428CE8DF0A42E59
:0206C500FE2213
:1006C700BC000BBE0029EF8DF084FFADF022E4CC17
:1006D700F875F008EF2FFFEE33FEEC33FCEE9DECE0
:1006E700984005FCEE9DFE0FD5F0E9E4CEFD22ED26
:1006F700F8F5F0EE8420D21CFEADF075F008EF2F70
:10070700FFED33FD4007985006D5F0F222C398FD60
:050717000FD5F0EA22FD
:0E071C00C3E49FFFE49EFEE49DFDE49CFC22EE
:10072A00FAE6FB0808E6F925F0F618E6CA3AF622D0
:10073A00D083D082F8E4937012740193700DA3A34E
:10074A0093F8740193F5828883E473740293686062
:06075A00EFA3A3A380DF62
:1011F800EFB40A07740D121203740A309811A899F3
:10120800B8130CC2983098FDA899C298B811F63056
:0712180099FDC299F599222E
:00000001FF
